:020000040000FA
:10000000F00F0020D5000000F5000000F700000010
:1000100000000000000000000000000000000000E0
:10002000000000000000000000000000F9000000D7
:100030000000000000000000FB000000FD000000C8
:10004000FF000000FF000000F50F0000FF000000AF
:10005000FF000000FF000000FF000000FF000000A4
:10006000DD170000E5190000FF000000FF000000A0
:10007000211B0000FF000000FF000000FF00000047
:10008000FF000000FF000000FF000000FF00000074
:10009000FF000000FF000000FF000000FF00000064
:1000A000FF000000FF000000FF000000FF00000054
:1000B000FF000000C10B0000FF000000FF00000077
:1000C0000348854600F03EFD004800476D2B0000C8
:1000D000F00F00200A480B4901600B4901600B49F1
:1000E00001600B4A0B491160002101600A488047FA
:1000F0000A480047FEE7FEE7FEE7FEE7FEE7FEE709
:1001000000010050590000001600000088000000A7
:1001100024000050A55A0000D5160000C1000000C0
:1001200030B50B46014600202022012409E00D468F
:10013000D5409D4205D31D469540491B2546954017
:1001400040191546521E002DF1DC30BD70B500245B
:100150002546002801DA01244042002901DA012560
:100160004942FFF7DDFFAC4200D04042002C00D0F6
:10017000494270BD03460B439B0703D009E008C901
:10018000121F08C0042AFAD203E00B780370401C47
:10019000491C521EF9D27047F8B502464A40D40FA6
:1001A00042004B0052085B089A4202D202460846BF
:1001B00011464A0023D0C30D4A00DDB2120EAD1A1B
:1001C000202D35DA49020126490AF6058A19002C44
:1001D00000D0524220214F1B1146B9402A4110182D
:1001E000C20D9A4221D0002C17D0012D08DCDA056F
:1001F000801AD20F8019D207DBB200F083FBF8BD62
:10020000DA05801A012340001B06C01880185A42E4
:100210008018CA0F1043490007E04908C20711437C
:10022000DA05801A80194008801800F063FBF8BDD9
:1002300061000122511A001BF7E70122D207514049
:10024000AAE70122D2075040A6E7024670B54A400D
:10025000D30FDB0740002DD04A002AD0010E140E28
:10026000000212020919400A520A8418E5010446E4
:100270005443000A120A2E045043A4194219200CB8
:10028000C543AA18120C0125AD03521C52191204C1
:100290007F39240400D0521C104301D44000491E71
:1002A000C2B20C06C0092018401C4008802A02D0A7
:1002B00003E0002070BD40084000002900DA002063
:1002C000184370BD70B502464A40D50F40004A0041
:1002D000ED0740085208002814D0002A12D0C40D9F
:1002E000D30D41020120C0055202490A520AE41A04
:1002F000091812187D34914201D3641C00E04900B2
:10030000002C01DA002070BD0023914201D3891A2C
:100310000343400849000028F7D100290AD0914240
:1003200002D10121C90705E0914201D2012101E07A
:100330000121C943E005C018401900F0DBFA70BD87
:10034000420005D04200120E52428A4201DB0020D8
:100350007047C90508187047F0B507460846584069
:1003600087B0C00F049048000E4659004008490865
:10037000BC1A884105D2384631461E4617460B4600
:1003800002465800400810434CD0300D0390400501
:100390005900400D490D0590401A0290402872DA2C
:1003A00018030121000B09050843019004980092ED
:1003B000002805D001995242002088410092019006
:1003C000029840210A1A0199009800F05FFA054648
:1003D0000C466B4607CB00F07AFAC0197141039ABC
:1003E0000E0D0023D71756401A467A40164344D0C4
:1003F000049A002A2DD0029A012A039A15DC1205CC
:10040000C01A914101263605001C7141D20F059E8C
:10041000D2070093019202962A46234600F0B8FACA
:1004200007B0F0BD38463146FAE71605224A0F46B6
:10043000B218C01AB74101210905001C4F4100182C
:100440007F41114618187941E20F10436D1964413C
:1004500013E0E2076D0815436408C2071443039ACA
:1004600001261205C01A91413605001C7141CE07C4
:10047000400830434908C01851412A46234600F03D
:100480007AFACDE7FFE7049801224000C117121A5B
:1004900000238B4104983146C417381AA141EEE776
:1004A00030B40124E407634030BC55E730B4012484
:1004B000E407614030BC4FE70000E0FFF0B51FB437
:1004C00088B00B990998002448400999C00F490049
:1004D00049080991C0070B990090490049080B9100
:1004E00009990898A64608431CD00B990A98084316
:1004F00018D0099801244000420D4800410D099888
:1005000024050003000B204309900B980003000B07
:1005100020430B9050181C494018002201901446AB
:10052000104605E0002001460DB0F0BD032801DAB9
:10053000034600E003239C46C11A0AAE0AE05F00AE
:1005400008ADED5B4F00F75B7D430027AA187C41A7
:10055000491C5B1E6145F2DD410004AB5A52210487
:10056000120C0A43240C401C0828DFDB019802907F
:100570000099704601910090059B049A079906988E
:1005800000F006FAD0E700000DFCFFFFF0B50C46C6
:100590005C4085B0E40FE40703944C000026640837
:1005A00059009446490802460296224321D06246E9
:1005B0000A431ED06200570D4A000E032303550D57
:1005C000012402462C492405781B1B0B360B4018CE
:1005D00023432643614600901C46501AB44103D37E
:1005E0000098401C009002E0921800985B4100289F
:1005F00003DA0020014605B0F0BD00200121090505
:100600000746864611E064461D46141BB54106D3D5
:100610006546521BB341744607430C43A646CD07BB
:1006200040084908284392185B4105460D43EAD12A
:100630001046184313D06046194650407140084395
:1006400006D06046101AB34106D20122002306E00C
:1006500000220123DB0702E00122D243531000985D
:1006600074460105381C6141029C039D00196941D3
:1006700000F081F9BFE70000FD030000C217C10FC1
:10068000504010B54018CA079623002100F03AF9EF
:1006900010BD10B500229623114600F033F910BDAD
:1006A0000EB5C217C10F5040CA0740180021054BB4
:1006B0000293019200910A460B4600F069F903B0DB
:1006C00000BD0000330400000EB505490291002171
:1006D00000910A460B46019100F05AF903B000BDA3
:1006E00033040000C20F410040020123400ADB0531
:1006F000D207090EC0187F2901DA00207047962919
:1007000003DC9623591AC84001E096398840002A34
:10071000F4D040427047410040020122400AD20515
:10072000090E80187F2901DA00207047962903DC22
:100730009622511AC8407047963988407047000089
:100740004A0009030123090B1B051943094B10B586
:10075000520D9A4201DA002010BD064B34339A4202
:1007600003DC9A1A00F0A2F810BD03495118884022
:1007700010BD0000FF030000CDFBFFFFC20FD2073A
:10078000400040080BD0C10D0723DB01C91840020F
:100790000905400A1143C208400711437047002071
:1007A0000146704710B5002904DB0124E4074042EC
:1007B0008C412146002B04DB1C460123DB075242FF
:1007C000A341994200D1904210BD0000CB0FDB073E
:1007D000490010B5490802460A4307D00A0D07240C
:1007E0000903E401090B121B002A01DC002010BDE3
:1007F000C900440F0C43C100E018D205801800F076
:1008000079F810BD0122D207002800DB101A002958
:1008100000DB511A814270470122D207002800DB19
:10082000101A002900DB511A88427047F0B51FB436
:100830000646002082B005464024019100901BE04E
:10084000019922460F46304600F030F8049A059B85
:10085000801A994110D310461946224600F016F826
:10086000361A8F410197224601200021009F00F097
:100870000DF838184D4100902046641E0028DFDC3A
:10088000019B00982946324607B0F0BD10B5202ADA
:1008900004DB0146203A9140002010BD9140202306
:1008A0009C1A0346E3401943904010BD10B5202A1E
:1008B00004DB0846203AD040002110BD0B46D3404F
:1008C000D0402024A21A91400843194610BD10B50B
:1008D000202A06DBCB170846203A1041C1170B43EC
:1008E00006E00B461341D0402024A21A9140084351
:1008F000194610BD002904DA401C490001D1400806
:100900004000704770B40024050C05D11024000489
:1009100002D1002921D01124050E01D10002083492
:10092000050F01D10001241D850F01D18000A41CF9
:10093000002801DB4000641C002908D020252E1B64
:100940000D46F540A14000D001212943084301068E
:100950001B1B000ADB1D02D5002070BC7047DB05A5
:10096000181880180029F8DA401C4900F5D170BC2D
:1009700040084000704710B5002B08DA0024401CE6
:10098000614192185B411A4301D14008400010BDFB
:10099000F0B51FB482B005460C0003D0084601F044
:1009A00037FB02E001F034FB203002460090214684
:1009B0002846FFF76BFF049B059A04460F46184331
:1009C0001143084314D0184610431BD0009840210F
:1009D0000A1A18460599FFF769FF05460E46009A60
:1009E00005990498FFF752FF084305D0012004E061
:1009F0002046394607B0F0BD0020C11705430E431D
:100A00002C43374300990E986305401A7905E40A90
:100A100000220C43FD0A0A3002D500200146E9E716
:100A20000105101969410C9C0D9D00196941FFF7E2
:100A3000A2FFDFE770B54B005B0803430BD04B0010
:100A40005C0D002633466542B341D417AD1AA3416D
:100A500002DB0020014670BD12053018514170BD07
:100A6000FEB500231A461B1A8A4103DB002001460B
:100A700003B0F0BD4A000D0301212D0B0905520DF5
:100A80000D43D10702D100186D41521E5110FF31A4
:100A9000FF310131002704463E4638460097019158
:100AA0000246012100200905FFF700FFC31971412B
:100AB000F818324684468E464A4161462846611AF5
:100AC000904104D36046241A954176461F46241966
:100AD00000986D41401C00903428E1DDF919304642
:100AE0007041091BA84103D20022D243134601E002
:100AF0000022134601980105381C7141FFF73BFFA6
:100B0000B6E700004A0009030123090B1B0519433E
:100B10000A4B10B5520D9A4202DA0020014610BD70
:100B2000064B34339A4203DC9A1AFFF7BFFE10BD1E
:100B3000034BD218FFF7AAFE10BD0000FF03000010
:100B4000CDFBFFFF064C0125064E05E0E36807CC10
:100B50002B430C3C98471034B442F7D3FFF7B4FA58
:100B60007053000090530000CB0709480222002B6D
:100B700002D0036A934303628B0702D5836A9343CF
:100B80008362490702D5C16A9143C1627047000080
:100B900000000E40CB0709480222002B02D0036A56
:100BA000134303628B0702D5836A134383624907A9
:100BB00002D5C16A1143C1627047000000000E40B7
:100BC0000249012008620249086370478C00002036
:100BD00000000E4030B50648046A064D2C400C4318
:100BE00014430462416A090A09021943416230BD93
:100BF00000000E40F3FBFFFFF0B50026684C87B005
:100C00006666684DE6654323082231462846266617
:100C1000FFF7E0FF286A012108432862296328467C
:100C2000FFF7B8FF1D2000F035FC2662286A01217D
:100C3000C90208432862206A0028FCD00121284606
:100C4000FFF792FF286880B2FFF723FD0646686829
:100C500080B2FFF71EFD0746A86980B2FFF719FDB5
:100C600005460B21C9433846FFF76AFBFFF786FDAF
:100C70004D4F4E4B3A46FFF721FC4D4A4D4BFFF787
:100C80001DFCFFF7A3FD0B21E065C9433046FFF7CC
:100C900057FBFFF773FD3A46444BFFF70FFCFFF796
:100CA00095FD0B216066C9432846FFF749FBFFF716
:100CB00065FD3A463D4BFFF701FC3F4A3F4BFFF7CE
:100CC00065FCFFF783FDFFF759FD06460D463C4ADC
:100CD0003C4B0091FFF7F2FB32462B46FFF7EEFB51
:100CE00032462B46FFF7EAFB32462B46FFF7E6FB80
:100CF00032462B46FFF7E2FB009D039102903046FF
:100D0000314A324B2946FFF7D9FB32462B46FFF7D3
:100D1000D5FB32462B46FFF7D1FB32462B46FFF779
:100D2000CDFB009D074606913046294A294B2946AE
:100D3000FFF7C4FB32462B46FFF7C0FB32462B467B
:100D4000FFF7BCFB0591009D04903046224A234BDF
:100D50002946FFF7B3FB32462B46FFF7AFFB0546AC
:100D6000019130461E4A1F4B0099FFF7A7FB002256
:100D70001D4BFFF79BFB2A46019BFFF7EDFA059BF6
:100D8000049AFFF78DFB3A46069BFFF7E5FA039BB3
:100D9000029AFFF785FBFFF719FD206607B0F0BD4B
:100DA0008C00002000000E40ED0DBE3099AA0A40D4
:100DB0007F6ABC749318104085EB51B81E85F33FD1
:100DC0002EFF21FDF615214039B4C876BEDF4B4019
:100DD0000AD7A3703DE26240B81E85EB51D06A404D
:100DE000A4703D0AD783684000005E40C10F8A00AE
:100DF000044951188A68C306DB0E0120984002435B
:100E00008A6070470002005008B511A00068009089
:100E10001048016A0013014201D0002008BD0803F8
:100E200001D50D4800E00D488A03F7D40A04920F5B
:100E30006B469B5CCA058904D20DC90E891C8008CB
:100E4000921C59435043FFF76BF9800008BD000026
:100E5000010202040002005000805101001BB70093
:100E600070B5430E1B070DD043009B0F0F4C9B002A
:100E70001B191C68C5002D0FC601F60EB540AC430A
:100E80000C431C60830A1906090E0ED00103074C9F
:100E9000890F8900083409190C68DBB28005DB432F
:100EA000C00E8340234013430B6070BD10020050FE
:100EB00006490968484306494861002088610520C1
:100EC00008610869C003FCD47047000004000020DA
:100ED00000E000E010B504460549064B03E00A4671
:100EE000491E002A03DDDA6820469043F7D110BD81
:100EF00090D00300000200500649002010B50A46B9
:100F0000034640320C5C14540B54401C3628F9DB69
:100F100010BD00008402002030B5344B344A1C78E8
:100F200001202107090F0D46303555730A2900D3DA
:100F300000206106490F0C4630341473062900D393
:100F400000205C782107090F0D463035D5720A293B
:100F500000D300206106490F0C46303494720629F4
:100F600000D300209C782107090F0D4630355572BB
:100F70000A2900D30020A106890F0C4630341472D0
:100F8000032900D300201C792107090F0D463035B5
:100F9000D5710A2900D30020A106890F0C463034F0
:100FA0009471042900D300205C792107090F0D46B4
:100FB000303555710A2900D30020E106C90F0C46CF
:100FC00030341471022900D300209B791907090FCE
:100FD0000C463034D4700A2900D3002019090B467E
:100FE00030339370042900D3002030BD3801002035
:100FF0003B0D002030B50D49042008620C484468C0
:10100000C11FC56800230122F939AC4201D34A71DE
:10101000436084680569AC4201D38A71836041688A
:10102000491C41608168491C816030BDC04000504E
:101030000C01002010B58369140E8C40234383619A
:10104000C3691202120A8A401343C36110BDF0B58E
:10105000002301273C469C400C4208D005685C00F8
:101060000326A640B5431646A640354305605B1CE3
:10107000082BEFD3F0BD0000FFB50E46090C490068
:10108000014381B0C8B2414F3C250190386800242B
:101090000821884320210843386038680007FCD5C0
:1010A0000198B8603868A84308303860386800078D
:1010B000FCD5F86818280ED001243868A8431830E9
:1010C00038607D20C000FFF7F3FE002CDED10498CD
:1010D00005B0C0B2F0BD3004000EB8603868A84357
:1010E0000830386038680007FCD5F868282801D037
:1010F0000224E2E7F0B2B8603868A84308303860EC
:1011000038680007FCD5F868282801D00324D4E704
:101110003868A8432830386038680007FCD5F8687C
:10112000102801D00424C8E7019801210843B860C1
:101130003868A8430830386038680007FCD5F8687C
:10114000402801D00524B8E7049A0020521E09E087
:10115000A9430C31396039680907FCD5B968039B8C
:101160001954401C39689042F2D3A94308313960C0
:1011700039680907FCD5B968039A11543868A8433F
:1011800018303860002C98D1A1E700000000024020
:10119000FFB50D46090C4900014381B0C8B22F4E7E
:1011A0003C2701903068002408218843202108430F
:1011B000306030680007FCD50198B0603068B843F3
:1011C0000830306030680007FCD5F068182801D07E
:1011D00001240EE02804000EB0603068B8430830E7
:1011E000306030680007FCD5F06828280CD0002C4F
:1011F00008D03068B843183030606420FFF758FEDC
:10120000002CCFD105B0F0BDE8B2B0603068B84373
:101210000830306030680007FCD5F068282801D01D
:101220000324E6E700200EE00399095CB160316811
:10123000B9430831316031680907FCD5F1683029BC
:1012400000D10424401C04998842EDD3002CD0D155
:101250003068B84318303060D4E700000000024026
:1012600010B50249024800F005F810BDA086010043
:101270000000024070B50C4D044628680A2289001F
:101280005043FEF74DFF0A21401DFEF749FF401E67
:10129000206121684022114321608100091D2868D6
:1012A000FEF73EFF70BD000000000020FFB581B0DA
:1012B000164607463C25374A002410680821884313
:1012C00020210843106010680007FCD59760106863
:1012D000A8430830106010680007FCD5D0681828B3
:1012E0000DD001241068A843183010606420FFF767
:1012F000DFFD002CDFD1049805B0C0B2F0BD02982C
:10130000C0B290601068A8430830106010680007F1
:10131000FCD5D068282801D00324E3E71068A8434F
:101320002830106010680007FCD5D068102801D064
:101330000424D7E738460121084390601068A84389
:101340000830106010680007FCD5D068402801D034
:101350000524C7E7049B00205B1E08E0A9430C316D
:10136000116011680907FCD591683154401C11685F
:101370009842F3D3A9430831116011680907FCD5DD
:10138000916831541068A84318301060002CA9D11E
:10139000B1E7000000000240FFB5274D81B01F46B5
:1013A0003C2628680024082188432021084328601F
:1013B00028680007FCD50198A8602868B043083069
:1013C000286028680007FCD5E86818280BD001249D
:1013D0002868B043183028606420FFF769FD002CAE
:1013E000DFD105B0F0BD0298C0B2A8602868B04354
:1013F0000830286028680007FCD5E868282801D054
:101400000324E5E700200EE00399095CA960296840
:10141000B1430831296029680907FCD5E9683029FA
:1014200000D10424401CB842EED3002CD0D128684F
:10143000B04318302860D4E70000024014488F22DF
:10144000017809090901C91D114010310170417865
:1014500009090901C91D1140103141708178CF225D
:1014600009090901C91D114010318170017909096B
:101470000901C91D1140103101714179EF2209099B
:101480000901C91D11404171172181717047000088
:1014900038010020C106C90E0120884001490860BA
:1014A0007047000000E100E007490020074A087388
:1014B0001169054B06488033014018469930007881
:1014C0000843D863906070470C00002080400050B3
:1014D000F8FF000010B50823024A0021D020FFF7D2
:1014E000E5FE10BD3801002010B5064A1169074C11
:1014F000054B21401C469934205C0843D86390601A
:1015000010BD0000804000508C000020F8FF00005B
:1015100070B5274C20680425284320601020FFF771
:10152000D9FC07202061206AE1010843206220687D
:101530000921084320601F4820620D20FFF7CAFCE4
:101540001A2020611C48A0601C4860611C4C204689
:10155000FFF74CFC032252040C212046FFF780FCCD
:1015600000F070F805200007C16B164A1140C163F6
:101570001549C163C16B154A1140C163C16B032298
:1015800012031143C163124B5A6843210A435A6044
:10159000426B104B1A404263426B0A4342630C4851
:1015A000803081698161C1692943C16170BD0000DA
:1015B00000020050174200003C0101000020000121
:1015C0001CFE2326F0F0FFFF0F080000CFCFFFFF27
:1015D00040400050BCBCFFFF05200007816802228C
:1015E000114381607047010E8A00052109075118D7
:1015F0008B680122824013438B6088689043886027
:101600007047000010B5592116230548882202E0D2
:101610000160036002600468012CF9D110BD000074
:101620000001005006498A691202FCD408600A28A9
:1016300004D188690002FCD40D20086070470000C6
:1016400000000540F8B51C4D286944071BA0006840
:101650000090296A640F2813014201D0002016E08F
:10166000080301D5164800E016488A030FD40A047F
:10167000920F6B469B5CCA058904D20DC90E891C6A
:101680008008921C59435043FEF74AFD80000E4EDD
:10169000022CB06002D00D49A0000858A9690907C2
:1016A000090F491CFEF73CFD094930604A108018BB
:1016B000FEF736FD7060F8BD000200500102020422
:1016C00000805101001BB700000000206C52000098
:1016D00040420F007047002101604161704701687E
:1016E0000122120691430160704710B54369162428
:1016F000A3430B43134308210B43436110BD4269CD
:10170000520852000A434261016801221206114345
:101710000160704710B588B004462022124968461F
:10172000FEF728FD114912488C4202D14069000A97
:101730000DE00E4920318C4202D14069000B06E0D9
:101740000C4940698C4201D1000C00E0000D4007BB
:10175000400F022804D080006946085808B010BD28
:1017600005480068FAE70000BC5200000000014094
:10177000000200500000114000000020F7B517469D
:101780000646FFF7C7FF044600254008B84201D2CD
:10179000022017E0012189068C4202D30725E408C4
:1017A0000CE0012149068C4202D30325A40805E080
:1017B000012109068C4201D3012504463946204601
:1017C000FEF7AEFC01992943316070606D1C6843DF
:1017D00001462046FEF7A4FCFEBD0000F8B57C489B
:1017E00080688027C007C00F7A4D00287ED0012076
:1017F000AC00A060784E316CF21B491C3164107C47
:10180000412800D1AF60744A803A527C542A04D1F6
:10181000002902D0714BC8225A606F4A803A44288E
:1018200005D0412825D0532806D0432803D1B16CD8
:10183000FF20401AA860F8BDB06C802801D9A860CC
:1018400000E0AF60012911D9706AB16A88420ED8F0
:10185000706A1E307062F16A6148002900D0D17848
:10186000716AFEF75DFC606000203064A5E0AF6047
:10187000A3E059488038407A6628B06C0BD08028A5
:1018800057D2FF21081AB064A86003F089FB316BBE
:101890004018306356E0A8601920400101F0D4F8E8
:1018A000B16CFF20401AA8607D20C00001F0CCF888
:1018B000002403F075FB316B641C4018E4B2306304
:1018C000052CF6D37D24E400204601F0BDF8AF607E
:1018D000FF202D3001F0B8F803F062FBB16B401827
:1018E000B063FF202D3001F0AFF800E02FE0B06CC6
:1018F000A860204601F0A8F8002403F051FB316BEA
:10190000641C4018E4B23063052CF6D37D20C0007F
:1019100001F09AF8AF601920800101F095F8B16CE0
:10192000FF20401AA8601920400101F08DF8AF6037
:1019300008E0FF21081AB064A86003F031FBB16B26
:101940004018B06324488038007C532835D0224E9C
:10195000803E307C412800D06DE71F49306B0C6C15
:101960008442F9D31A4B18689A039043186038469A
:1019700088640F46A86020460A214843FEF789FE86
:101980000546386BFEF785FE2946FEF79BFC0546AB
:10199000F0662046FEF77DFE0446B86BFEF779FE42
:1019A0002146FEF78FFC014670672846FEF745FC8E
:1019B000306700203863B863F8BDB06CFF21081AA7
:1019C000B064706AB16A8842F6D3AF60F8BD0000B7
:1019D00000000140004000508C0000200403002063
:1019E000001BB70070B5124EB06901281FD1B0615D
:1019F0001048114D4468641C4460E969FF202D3093
:101A0000814200D3E8613069FEF743FEE9690B4B80
:101A10008A00D218491CE9611060E00702D0022256
:101A2000002101E0022210213046FFF75EFE70BD6A
:101A300020000140040300208C0000201408002036
:101A40001B491C480A7813071B0F52063033520FEC
:101A50004373303202734A7813071B0F5206303338
:101A6000520FC372303282728A7813071B0F9206AC
:101A70003033920F4372303202720A7913071B0F10
:101A800092063033920FC371303282714A79130754
:101A90001B0FD2063033D20F437130320271897975
:101AA0000A07120F30320909C27030318170704755
:101AB000380100203B0D002070B517481549C08C37
:101AC0000546FEF72DFB0A21FEF72AFB134C3031A9
:101AD00021707D21C9002846FEF722FB0A21FEF76E
:101AE0001FFB3031617064212846FEF719FB0A2183
:101AF000FEF716FB3031A1700A212846FEF710FBD5
:101B00000D460A21FEF70CFB3031E17029463031D9
:101B1000217170BD102700000C0000202001002062
:101B200010B500F067F810BD10B51048FFF75BFD69
:101B30000F480F4940788031012806D0022807D08D
:101B400003280DD0042806D10DE04B20C00101E090
:101B50004B200002C864C96C064800F00DF810BDA7
:101B60004B204002F6E7E1204002F3E710000004BA
:101B70000C00002000000540F0B5044619480D4651
:101B80000FC885B06E460FC6174840698101032013
:101B90008E0F00212163E060A06814490840A06016
:101BA0006F46012E02D1FFF72FF90190002D16D0BC
:101BB000B0003E58680830182946FEF7B1FA0C49C3
:101BC000801E884207D9E80030182946FEF7A8FA97
:101BD0000009801E02E0032109070843606205B086
:101BE000F0BD00008C520000000200500FFFF0FF1B
:101BF000FFFF0000F8B59E49C8699E4EC0055025FC
:101C00009D4F00287DDBF8BD0068C4B20D2C09D1C2
:101C1000F87A01214840F87201D098A000E09CA019
:101C200000F0E6F9787B462801D9002078732A2C49
:101C300015D1002078733470F87A012822D03878D2
:101C400001214840387004D00220FFF723FC95A002
:101C500003E097490420086096A000F0C9F9787B5A
:101C600001280AD14D2C0CD00D2C71D07D7395A07C
:101C700000F0BEF90220FFF70DFC787B022802D0AD
:101C80000AE0747064E0492C0AD07D738FA000F0E4
:101C9000AFF90220FFF7FEFB787B032802D00AE0B1
:101CA000B47055E04E2C0AD07D7388A000F0A0F9E6
:101CB0000220FFF7EFFB787B042802D024E0F470C9
:101CC00046E0522C24D0562C22D0442C20D0412C3B
:101CD0001ED0432C1CD0552C1AD0542C18D0532C69
:101CE00016D04B2C14D0422C12D04E2C10D04F2C8E
:101CF0000ED0492C0CD07D7374A000F079F902202D
:101D000000E09EE0FFF7C6FB787B052803D01FE0CC
:101D10003471FC731CE0F87B522813D0552811D085
:101D200053280FD04B280DD042280BD04E2809D075
:101D30004F2807D0492805D020463038092803D835
:101D4000747105E0452C0DD07D730220FFF7A2FBD6
:101D5000787B811F2D2962D221463039092957D835
:101D600034545CE04349747100208871F87201209A
:101D7000B873FFF7C1F83F484030007953280AD0C4
:101D80004B280DD0422814D04E2822D04F2823D0E3
:101D900049282AD038E0FFF735FCFFF71DFC33E077
:101DA000F879401CC0B2F87103282DD90020F871D1
:101DB0002AE07878401CC0B27870042801D901204C
:101DC0007870FFF71FFCFFF7AFFE42490020086064
:101DD0001AE00120787117E0FFF77CFBFFF730FE77
:101DE0003D493EA000F004F90EE042A000F000F9E9
:101DF0004EA000F0FDF855A000F0FAF85FA000F04A
:101E0000F7F868A000F0F4F87D730020F8739FE7FE
:101E10007D732EA000F0ECF80220FFF73BFB787BEF
:101E2000332808D1452C12D07D7328A000F0E0F8AB
:101E30000220FFF72FFBF87A002802D0787B401CA5
:101E400078730B48C169C90700D0DDE6F8BD34548A
:101E500008480024333044700120F872B873FFF74B
:101E60004BF87D73FC735DA000F0C2F8FC72E8E7EC
:101E700000000540840200200C00002009436F6D23
:101E80006D616E6420456E61626C650A0000000041
:101E900009436F6D6D616E642044697361626C65A6
:101EA0000A00000009206D6561737572650A000003
:101EB00080E100E0092053746F70206D65617375D7
:101EC00072650A00094552524F520A004552524F5C
:101ED000520A0000000100503D0D00204465766963
:101EE0006365205265616C2054696D653A25730AFB
:101EF000000000000A2B2D2D2D2D2D2D2D2D2D2DEB
:101F00002D2D2D2D2D2D2D2D2D2D2D2D2D2D2D2D01
:101F10002D2D2D2D2D2D2D2D2D2D2D2D2D2D2D2DF1
:101F20002D2D2D2D2D2D2D2B0A0000007C57656C9D
:101F3000636F6D6520546F2047656F74656368201B
:101F4000536369656E63657C0A0000007C546869B0
:101F50007320697320546865204465766963652041
:101F60003A204D696E696C6F676765725F31364301
:101F700068616E6E656C7C0A000000007C546865C8
:101F8000204669726D776172652056657273696F5C
:101F90006E3A6D696E695F31372E30392E76337C3B
:101FA0000A0000002B2D2D2D2D2D2D2D2D2D2D2D0D
:101FB0002D2D2D2D2D2D2D2D2D2D2D2D2D2D2D2D51
:101FC0002D2D2D2D2D2D2D2D2D2D2D2D2D2D2D2D41
:101FD0002D2D2D2D2D2D2B0A0A0000000920436FD9
:101FE0006D5F554152545F4F4B20000A00000000C6
:101FF0000FB410B503A9044B044A029800F078F915
:1020000010BC08BC04B01847552A00003C02002050
:102010002021020C01D010211046020A01D01046E6
:102020000839020901D01046091F820801D0104664
:10203000891E420801D0881E7047081A70470000A8
:102040004900CA020243100000D004204A0D01D00A
:1020500001221043044A490D914201D10221084353
:10206000012800D105207047FF070000F8B504469D
:102070004F1EC8000838211815461E4608684968D2
:102080003A4606239A4310D02A463346FEF716FAFC
:102090003A46D200083AA3181A687F1E5B68FEF71A
:1020A0005BF906223B469343EED1022F23D0042F47
:1020B00011D0062F2FD12A463346FEF7FFF9E36AE7
:1020C000A26AFEF749F92A463346FEF7F7F9636A32
:1020D000226AFEF741F92A463346FEF7EFF9E36933
:1020E000A269FEF739F92A463346FEF7E7F9636934
:1020F0002269FEF731F92A463346FEF7DFF9E36835
:10210000A268FEF729F92A463346FEF7D7F9636835
:102110002268FEF721F9F8BD002210B513461046DB
:102120000149FEF733FA10BD0000F03F10B5FEF78D
:1021300013F910BD002210B5134610461146FEF7E4
:1021400025FA10BD10B50721024A00200907FEF745
:1021500071FC10BD01030000034A10B500201107F7
:10216000FEF768FC10BD000001FDFFFF02E008C89B
:10217000121F08C1002AFAD170477047002001E001
:1021800001C1121F002AFBD17047000001490860FD
:102190007047000040020020F0B51FB484B00798DB
:1021A0000699020D014314D04A484B491018484380
:1021B00005140F9801280E981CD0281A401C0024E2
:1021C000464E4749009401910290002814DA474294
:1021D00027E00F98012443A3012808D00021049888
:1021E0000F9A84600360C260416009B0F0BD0E9830
:1021F000C143F4E74042E2E7074612E0F80707D0A0
:102200002246334601990098FEF758F90191009053
:102210002246334610461946FEF750F904460E464C
:102220007F10002FEAD10298019B0028009A07999D
:10223000069802DAFEF742F901E0FEF7A7F9044634
:102240000E460022284BFEF7ADFA03D80020C0430B
:10225000014607E00022254B20463146FEF77CF878
:10226000FEF750FC102409E0002C0ADB0A220023B0
:10227000FEF7DCFA059B30321A55641E02460A430B
:10228000F2D11122641C059B121B1C190F9B012B00
:1022900003D0012308430ED10AE0084304D01120E3
:1022A0000E9000200F9084E70E98151A6D1E0BE01B
:1022B0000E98824202DD00236D1C03E0824201DAA7
:1022C00000236D1E002BEED004980F998260C16030
:1022D00030C08AE701FCFFFF104D000000002440E1
:1022E0000000F03F300000000000F0430000E03F3D
:1022F000FFB597B00646002518E2252877D10024BF
:102300002746FD49049400E00443761C32780120FE
:10231000203A90400842F7D130782A280ED0022285
:10232000307801463039092916D804990A235943CF
:10233000303940181443761C0490F1E7189802C80D
:1023400004911890002904DA012040030443484214
:10235000049002200443761C30782E2814D10420E7
:1023600004437078761C2A2809D11898761C80C8F6
:10237000189009E00A214F43303FC719761C307886
:10238000014630390929F5D930786C2810D006DC9F
:102390004C281AD068280ED06A2817D104E0742877
:1023A00013D07A2812D110E00120400504430CE03C
:1023B0000121090501E0032109050C4371788142DF
:1023C00003D1012000052418761C761C307811906A
:1023D00066280BD013DC58287DD009DC00287BD080
:1023E0004528F6D04628F4D047281AD1A5E118E0B0
:1023F000632835D0642870D0652812D19DE17028FB
:102400006CD008DC6728F1D069287BD06E280DD00D
:102410006F2806D1BAE073282ED0752871D078289D
:1024200059D01A9A199990476D1C7EE16002400FAD
:10243000022809D003280DD00428189801680DD06F
:102440000D60001D189070E11898EA1701680D6082
:102450004A60F6E7189801680D80F2E70D70F0E722
:1024600018986A4601781172001D18900020507269
:1024700002A80090012005E0189802C818900020DA
:102480000091C04361070DD5002101E00199491C6D
:102490000191B94212DA8142F8DB009A515C0029BD
:1024A000F4D10BE0002101E00199491C0191814226
:1024B000FADB019A0099895C0029F5D10199049809
:1024C0001A9B471A21463846199A00F097FA019943
:1024D000401945180BE04FE02CE113E04EE0009866
:1024E00000990078491C00911A9A1999904701980F
:1024F000401E0190401CF2D1214638461A9B199A81
:1025000010E137E00A200021009001916002410FA4
:10251000022907D0189A01CA1892C21794460329B3
:1025200008D00AE01898C01DC108C90005C9189153
:10253000944607E000B2C2179446042902D140B283
:10254000C1178C4600226146944506DA0A460021EE
:10255000404291418C462D2102E0210504D52B21DA
:102560006A461173012103E0E10701D02021F7E75A
:10257000029155E00A200AE0102008E010200090A7
:102580000021042004430191082703E008200021D2
:10259000019100906002410F022907D0189A01CAE8
:1025A000189200229446032908D008E01898C01D0C
:1025B000C108C90005C91891944603E080B20429F6
:1025C00000D1C0B200210291210729D511997029AB
:1025D00006D0009A1021019B4A401A4305D00EE014
:1025E00040216A461173012108E06146014306D08B
:1025F00030216A4611731199517302210291009A98
:102600000821019B4A401A430AD16146014301D186
:10261000610705D530216A46117301217F1E0291A1
:102620001199582904D035A10E910DA90D910DE0F5
:1026300037A1F9E76146019B009AFEF7F7F80E9B78
:102640008C469B5C0D9A521E0D921370614601439D
:10265000F0D10D9805A9081A20300190600703D524
:1026600001200004844300E001270198874201DD36
:10267000381A00E0002001990090411802980918CA
:102680000498401A0490E00306D421461A9B199A34
:10269000049800F0B3F94519002706E003A81A9A38
:1026A000C05D199990476D1C7F1C02988742F5DB2D
:1026B000E0030CD521461A9B199A049800F09EF964
:1026C000451904E01A9A3020199990476D1C009919
:1026D000481E00900029F5DC08E00D980D9900785F
:1026E000491C0D911A9A199990476D1C0199481E21
:1026F00001900029F1DC63E1092801003031323317
:10270000343536373839616263646566000000002D
:102710003031323334353637383941424344454617
:102720000000000000F05AF94519761C30780028A6
:1027300000D0E2E528461BB0F0BD600700D40627B4
:102740001898C01DC108C90048680A680831C30F3D
:10275000DB071891190001D09CA108E0210501D5E3
:102760009BA104E0E10701D09AA100E09AA14300F7
:1027700011985B08109165280CD006DC452809D01B
:1027800046281DD0472841D141E0662818D0672847
:102790003CD13CE00021112F01DB112000E0781C2E
:1027A0000191009008A911A8FFF7F6FC1399059173
:1027B0000021119A15927F1C12980197009150E008
:1027C0000120C00703900120019008A9009711A8DB
:1027D000FFF7E2FC139A149905920022119B0092D4
:1027E00012981593059A0192002901D0104602E033
:1027F000791C40180190381A01D5019804E0404234
:10280000401E0090781C0190C01B029043E0012FF5
:1028100000DA01270021112F01DD112000E03846E8
:102820000191009008A911A8FFF7B6FC1399059132
:10283000119A0021129815920091019721070CD44A
:102840000599B94201DB019900E00191012904DDFC
:10285000159A491E515C302906D0B84201DA011D93
:1028600005DA0121029115E00199491EEDE70028E2
:1028700005DC0099411800910199091A03E0019AB9
:10288000411C914200DD01910099401A401C0290C8
:102890000120C0070390200706D4029901988142C5
:1028A00002DB0020C043029000206946C87707AFD2
:1028B000012103980337C907884224D002201190D0
:1028C0002B201290039800280CDA404203902D2010
:1028D000129007E00A210398FDF722FC30317F1E99
:1028E000039039701199481E11900029F2DC039869
:1028F0000028EFD1791E1298087030782021084006
:102900004530BF1E387006A8C01BC01D039010982C
:102910000078002800D00120019941180298C017C2
:102920000918039809180498401A401E0490E003FF
:1029300006D421461A9B199A049800F05FF84519AD
:1029400010980078002803D01A9A199990476D1CA6
:10295000E00324D521461A9B199A049800F04EF8FA
:1029600045191CE00098002807DB0099059888426B
:1029700003DD1598405C199901E0199930201A9AE5
:10298000904700986D1C401C00900298401E0290D9
:10299000002804D11A9A2E20199990476D1C01998C
:1029A000481E01900029DDDC05E038781A9A7F1C6A
:1029B000199990476D1C0399481E03900029F4DC77
:1029C00021461A9B199A0498ACE600002D000000DD
:1029D0002B0000002000000000000000F8B50446B5
:1029E00000251E461746880404D405E039462020F9
:1029F000B0476D1C641EF9D52846F8BDFFB50446E6
:102A0000002581B01E46C80301D5302700E02027ED
:102A1000880404D505E038460399B0476D1C641E50
:102A2000F9D5284605B0F0BD01782A2908D14178AA
:102A30004D2905D18178492902D1C0784E2801D08D
:102A40000020704701207047002100E0491C8142AE
:102A5000FCD3704700B50346FEF7E4FD184600BD01
:102A600003490120886002498039086370470000EB
:102A70008042005021482A2101704D214170492196
:102A800081704E21C17056210171302141718171D7
:102A9000C1710172417281723622C2720173417337
:102AA0008173C173027441748174C174017541757D
:102AB0008175C175017641768176C176017741775E
:102AC0008177C17720300170417081703121C170F0
:102AD000017141718171C171017241728172C17262
:102AE000017341738173C173017441748174452111
:102AF000C17400210175417570470000050D00206B
:102B000030B5194C232000212070562060700A46F1
:102B10004132CB0000205B1AD2B21B191D18401C99
:102B2000C0B2AA730728F9D3491CC9B21029EED341
:102B300000210A4661324B000020CB18D2B21B198B
:102B40001D186035401CC0B2AA770328F8D3491C71
:102B5000C9B21029EDD304484521A030817300216A
:102B6000C173017430BD00003B0D002090B0FEF732
:102B700049FDFEF7CDFCFEF7D7FFFEF771FBCD4810
:102B8000002404600125CC4904200860CBA0FFF795
:102B90002FFAD8A0FFF72CFADEA0FFF729FAE9A058
:102BA000FFF726FAF1A0FFF723FAFE4E01221146A5
:102BB0003046FEF74CFA012202213046FEF747FA72
:102BC000012204213046FEF742FA01220821304654
:102BD000FEF73DFA012210213046FEF738FA0122B5
:102BE00020213046FEF733FA012240213046FEF71D
:102BF0002EFA012280213046FEF729FAE94E012201
:102C0000803611463046FEF722FA01220221304674
:102C1000FEF71DFA012204213046FEF718FA0122C0
:102C200008213046FEF713FADE4E0122403610210D
:102C30003046FEF70CFA012220213046FEF707FA53
:102C4000D84E0122C03640213046FEF700FA01225C
:102C500080213046FEF7FBF9D34F0022022138468F
:102C6000FEF7F5F9012204213846FEF7F0F90022BB
:102C700008213046FEF7EBF9002204213046FEF72A
:102C8000E6F9012202213046FEF7D4F9C748C463B1
:102C90008463C560C64E00203454401C2028FBDBF2
:102CA000C448FFF7D1FEFEF715FCFEF735F95E21AB
:102CB000C7223170DF2772700028B5703AD0032325
:102CC000BB4A2021D020FEF767FB35700123B84AAC
:102CD0002221D020FEF760FB37700123B44A072180
:102CE000D020FEF759FBFEF7ABFE02F04FF9B248D9
:102CF000FFF79AFEB04FB14E002831D002F090FAA3
:102D0000FF200130F067AA49ADA04131FFF770F90B
:102D1000A749B2A07931FFF76BF9A748A74F00790F
:102D2000803F562833D0442832D0412830D0432821
:102D30002ED02FE003239E4A2021D020FEF72CFB2B
:102D400001239B4A2221D020FEF726FB3770012366
:102D5000974A0721D020FEF71FFBFEF76FFBC2E763
:102D6000FFF788FE924A00204132115C3954401C22
:102D70004028FADB8E4861300475447502F062FA2F
:102D8000FF200130F0679CA0FFF732F9C5E7532020
:102D90003874387286484A300F9002F0D5F9874966
:102DA0008031C86082484F300E9002F0CDF98349DF
:102DB00080310861FFF7A4FE8048964901677F498A
:102DC0009548486795484168012211434160FFF7E3
:102DD00047FE7A48002103460163803B9148904CAE
:102DE000596344600524E40604600468240A24024C
:102DF0000460724801645A719A720820FEF74AFB17
:102E00000C20FEF747FB0220FEF744FB65498020BB
:102E100088606A490C46603C886468490020086301
:102E20000D46803D8863A87B01283FD10027624E74
:102E3000AF733079522804D0552808D0532810D0C9
:102E400013E05B4964A07731FFF7D2F80DE0A87872
:102E5000002803D074A0FFF7CBF806E002F0D8F802
:102E600003E0FEF7CFFBFEF7B7FB3079562805D01D
:102E7000442803D0412801D0432818D102F0D0F9CA
:102E800002F0E0F96DA0FFF7B3F80F9802F05CF9DB
:102E90004A4B8033D8600E9802F056F918613079A9
:102EA000562805D0442804D04128CFE0EDE0D0E0FA
:102EB000D3E0D3E00001005080E100E00A2B2D2D8B
:102EC0002D2D2D2D2D2D2D2D2D2D2D2D2D2D2D2D32
:102ED0002D2D2D2D2D2D2D2D2D2D2D2D2D2D2D2D22
:102EE0002D2D2D2D2D2D2D2D2D2D2D2D2D2D2D2B14
:102EF0000A0000007C57656C636F6D6520546F207D
:102F000047656F7465636820536369656E63657CAC
:102F10000A0000007C546869732069732054686556
:102F200020446576696365203A204D696E696C6F4F
:102F3000676765725F31364368616E6E656C7C0AE7
:102F4000000000007C546865204669726D776172EC
:102F5000652056657273696F6E3A6D696E695F764A
:102F600031372E30352E317C0A0000002B2D2D2DCF
:102F70002D2D2D2D2D2D2D2D2D2D2D2D2D2D2D2D81
:102F80002D2D2D2D2D2D2D2D2D2D2D2D2D2D2D2D71
:102F90002D2D2D2D2D2D2D2D2D2D2D2D2D2D2B0A86
:102FA0000A00000000400050004100504042005024
:102FB000C40C0020C0270900C40200208C0000209F
:102FC00044656661756C7420436F6D6D616E64203D
:102FD00053657474696E673A25730A004C617374A3
:102FE000204D6561737572656D656E742054696DF1
:102FF000653A25730A0000004C6F6164696E6720B2
:10300000436F6D6D616E64204661696C2C2D2D2DB2
:103010002D0A00000000C8430080BB4500000540A9
:1030200070170000000001402E2E2E2E2E2E2E2E68
:103030002E2E2E2E2E2E2E2E2E2E2E00436F6D6D0A
:10304000616E645F5375636573730A0006D043282D
:1030500004D0C0B2542804D014E05320287428723D
:1030600010E002F089F8FEF7EBFC0823FB4A002190
:10307000D020FEF791F9FAA0FEF7BAFFF7482C38F6
:10308000876047600220FEF705FAF9484079012879
:1030900073D1F8480121C1608163F748FFF7D4FC80
:1030A000F34D00268035686CF14F401C2E64686437
:1030B0007E71FDF7A1FD6846067206E1EC48017AD3
:1030C000532902D0017C532903D1E949F6228031EA
:1030D0008A64E74DE74A0123AE66D363E74F38467B
:1030E000FFF7B2FCD6633846FFF7AEFCD363384631
:1030F000FFF7AAFCD6633846FFF7A6FC6946E0480E
:10310000097A40182030C0783038C0B2E870022800
:103110000BD02946032817D0012822D004282DD00F
:1031200005283AD0002844D04EE0D1480921466312
:103130008163C66301640146D24A80310A67D24A7C
:103140004A67D249C1623FE04E6309208863CE637B
:103150000864C748CB4A80300267CB4A4267CC48F4
:1031600019E00B204863C8631F2088630864C048C7
:10317000C84980300167C84925E0E1E00B20486379
:10318000C863382088630864B948C44A803002673D
:10319000C34A4267C348C86216E015204863C86343
:1031A000382088630864B248BF4980300167BC4951
:1031B00009E04E6338208863CE630864AC48BB499D
:1031C00080300167BA494167A94DBA4F803538460A
:1031D000296FFDF777F8E86601903846696FFDF7CB
:1031E00071F8A866A24A0090516BC8204143800044
:1031F00009186962916BC82251430818A8620198A6
:10320000FDF789FA2F46A43738600098FDF783FA56
:10321000786069469A48097A4018C07C312877D08E
:103220006A46107A3921C200121A954836301218AF
:1032300091736A46127AD3009A1A1218D1736A46A9
:10324000127AD3009A1A121811746A46127AD300AD
:103250009A1A121851746A46127AD3009A1A1218DE
:1032600091746A46127AD3009A1A1218D1746A4677
:10327000127AD3009A1A121811756A46127A5300FC
:10328000D2181218603291776A46127A5300D21817
:1032900012186032D1776A46127A5300D218101889
:1032A000803001708449802088600220FEF7F2F8A7
:1032B000824841680122114341607D20C000FFF730
:1032C000C3FB6946087A401C08726846007A1028D9
:1032D00000D2F3E6674886637D20C000FFF7B4FBA9
:1032E000FEF7E2F8FEF7F6F8FEF7AAFB604D803530
:1032F000286EFDF743FA07460091E86DFDF73EFAA8
:103300000B46009901915E4902460097363100E074
:1033100020E06BA0FEF76CFE7D20C000FFF794FB61
:103320006E60744A11689003814311605048C6660C
:1033300046677D20C0002E63FFF786FB4D48C660C0
:103340004B488179012900D067E50021817101F0A6
:10335000A3FE62E546488030066480380673007C30
:10336000532807D04249412823D0442844D0432839
:1033700070D0FDE33E4D686C401C68647D20C00049
:10338000FFF762FB2F468037796AF86A5A48FCF7E4
:10339000C7FE5849486008688A0310430860287CC3
:1033A000532858D0442831D0412809D0432853D03D
:1033B000DFE75048514941600168820311430160D1
:1033C0002B4A507A662848D0FF270025F53701F0B0
:1033D000E7FD27496D1C80310A6B80180863BD42E8
:1033E000F5DB234D39468035286BFCF799FE2863C1
:1033F000FDF74FF9A865FDE318484E6320300168DA
:103400003C4841600168820311430160FFF728FBDB
:103410000020FEF769F83A48FFF716FB14487D27AD
:1034200080300025FF00066301F0BAFD10496D1CD5
:1034300080310A6B80180863BD42F5DB0C4D3946BC
:103440008035286BFCF76CFE2863FDF722F90849EC
:10345000C866D0E756E088E05CE0FDE33801002074
:103460005365745F54696D655F446F6E650A000053
:103470000C00002040420050400D0300A0860100D7
:10348000050D00200000FA4300009644E7FB814050
:10349000BC7453400000FA4400C05A450080BB444D
:1034A0000080BB45C633C83E00401C450000E143D8
:1034B00000A0BE4520BC3E4C00400050000005402E
:1034C0000A25732D5265616C5F54696D655F4461B7
:1034D0007461090A0A2C44435F494E3D25322E315E
:1034E0006620562C54656D703D25322E3166206461
:1034F00065670A0000000140001BB700409C000007
:1035000040420F004E63FF48FD494160026881035D
:103510000A430260FFF7A4FA0420FDF7E5FFFA482A
:10352000FFF792FAFF270025F53701F039FDF7493B
:103530006D1C0A6B80180863BD42F6DB7EE7416AAA
:10354000806A814211D3286CA863E96BC822696341
:1035500051439700ED4BCA195A62C8214843C1191B
:103560009962EB498020886004E0E848416A826AF9
:103570009142E4D9E34B18689F03B84318600020D8
:103580008200E449401C8E50FF212D318842F7DB38
:10359000DE49542080394874DA48DF494160DF4809
:1035A000FFF752FAD7480068012189070843D54937
:1035B0000860D44F032120370122C9063846FEF7A0
:1035C000DDF8D048006A010ACE4809020162D449F8
:1035D000416200213846FEF792F87869402108439D
:1035E00078613846FEF77BF8022200213846FEF764
:1035F0007CF87869202108437861CA48C34D466049
:10360000EE6138684906084338600920FDF742FF3B
:10361000C548FFF719FABB48006879068843B949DD
:10362000086038688903884338603846FEF753F8E5
:10363000EE60AE602846803886672E616E61AE61AE
:10364000002100910191EE60AE602E616E61AE616D
:103650000525AE48A4300068FDF71BF8AD49AF0062
:10366000C959FDF7D9F818D8A848A4304068FDF723
:1036700010F8A849C959FDF7C5F80ED8A548C15991
:103680000120C005814216DBA04FF868FCF784FDDD
:10369000F8600098401C00900DE09E48C159012040
:1036A000C005814207DB994F3869FCF775FD386129
:1036B0000198401C0190FF272D376D1CBD42C8DBCF
:1036C0000098FCF7DBFF914D0146E868FCF7FAFD36
:1036D000E8600198FCF7D2FF01462869FCF7F2FD8B
:1036E000286100200090052501908848A4300068DA
:1036F000FCF7CFFF8749AF00C959FDF78DF824D8F3
:103700008248A4304068FCF7C4FF8249C959FDF7DC
:1037100079F81AD87F480121C059C9050390884219
:1037200021DB7A4FF968FCF788FD0490F96803986B
:10373000FCF783FD0499FCF788FDB968FCF72CFDC4
:10374000B8600098401C00900DE07248C1590120FB
:10375000C005814207DB6D4F7869FCF71DFD78617C
:103760000198401C0190FF202D306D1C8542BCDB70
:103770000098FCF783FF654D0146A868FCF7A2FDA1
:10378000FCF7FCFF01F0BCFCFDF720F8A8600198F5
:10379000FCF774FF01466869FCF794FDFCF7EEFF47
:1037A00001F0AEFCFDF712F868610121A868FCF792
:1037B000C7FDA86000200090052701905348A43061
:1037C0000068FCF766FF5349BD004959FDF724F82E
:1037D0001FD84E48A4304068FCF75BFF4D4949595B
:1037E000FDF710F815D849488168C068FCF7D4FC8B
:1037F00048494959FDF706F809D344488168C0682B
:10380000FCF71BFD43494959FDF706F801D2414831
:103810004651FF202D307F1C8742CFDB05253B48DA
:10382000A4300068FCF735FF3A49AF00C959FCF7EE
:10383000F3FF19D83548A4304068FCF72AFF354912
:10384000C959FCF7DFFF0FD83248C1590120C00524
:10385000814217DB2D4F803FB86FFCF79DFCB867A6
:103860000098401C00900DE02A48C1590120C00575
:10387000814207DB254FB869FCF78EFCB8610198DF
:10388000401C0190FF202D306D1C8542C7DB009845
:10389000002811DDFCF7F2FE1C4D0146803DA86FAB
:1038A000FCF710FDA8670198FCF7E8FE014680359B
:1038B000A869FCF707FDA86114488038816F41664C
:1038C000FFF7CEF80620FDF70FFE184A1046FFF767
:1038D000BBF81046FFF7B8F80C4F0D4899217E63EE
:1038E00081601046FFF7B0F8002501F059FB796BB5
:1038F0006D1C40187863322DF7DB3221034D17E041
:10390000B80B000000000140809698008C00002059
:103910000040005014080020001BB70020A1070041
:10392000FFFFFF000403002060AE0A001027000024
:10393000686BFCF7F5FB686328468038416E012010
:10394000C005814275DB28468038426C002A70D061
:103950000546FE48FCF7B6FCA866014600907F20AD
:10396000C005FCF7AFFCFA49FCF76FFCE86780354F
:10397000686C0A21401EFCF7D3FBA967002907DB0E
:10398000F44A890189186A46127A00989200885090
:1039900000273D46EF48A90108186946097A8900C1
:1039A00042580121C9058A420BDB6A46117A7F1C05
:1039B00089004158E848C06CFCF7EEFB0146E64838
:1039C000C1646D1C0A2DE5DB3846FCF757FEE24D5D
:1039D0000146E86CFCF776FC6A46E864117A074613
:1039E0008A00DE498850A87A00287DD06A46107A7D
:1039F000820008468058FCF7C1FED94AD94BFCF733
:103A00005DFD0546019138460099FCF716FCFCF770
:103A100069FE010000D541420846FCF741FE2A46F6
:103A2000019BFCF7BFFED04804D20168491C01602D
:103A300001E035E106606846007AC84D80002858EC
:103A4000FCF79CFEC64AC74BFCF738FD0090C24805
:103A50000191816EC06CFCF7F0FBFCF743FE00287F
:103A600000DA4042FCF71CFE019B009AFCF79AFE2C
:103A700042D2BD48006802281DDBB8490020D03181
:103A80006B4682011B7A52189B00D6508200401C64
:103A9000AE500A28F4DBB04AAF488032926F806E95
:103AA000920151186A46127A920088506A46117A39
:103AB0008900685051E06A46107A80002958A6486B
:103AC000806EFCF7BAFBFCF759FEA84AA84BFCF73E
:103AD000F5FC07466B460091187A80002858FCF7E1
:103AE0004DFE3A46009B00E03BE0FCF735FCFCF75E
:103AF0006DFE9949886630E0974FB96E0091F86C79
:103B0000FCF79BFBFCF7EEFD002826D06A46107AF6
:103B1000800029580098FCF790FBFCF72FFE934A91
:103B2000934BFCF7CBFC6F4601910090387A8000F4
:103B30002858FCF723FE019B009AFCF70DFCFCF7CC
:103B400045FE8549854A88668031896FD032890172
:103B500089186A46127A920088507F48C66480307D
:103B6000C6607D4DA86E0390A8640490E86A00E0EA
:103B7000E4E3FCF703FE0191049900900846FCF78A
:103B800064FBFCF7FBFD764A764BFCF797FC019B48
:103B9000009AFCF793FCFCF719FE29468031086077
:103BA000E97901297BD0022902D0032978D108E0E4
:103BB0007F20C0050399FCF785FB6549FCF745FBB1
:103BC0006DE0286EFCF7DAFD059104900399A86A70
:103BD000FCF73BFBFCF7D2FD009001910398FCF74A
:103BE000CDFD012300229B0700F0D2FC0791069037
:103BF000E86D00E070E1FCF7C1FD079B069AFCF759
:103C00005DFC09910890A86EFCF7B8FD0022594BA5
:103C100000F0BEFC07910690A86DFCF7AFFD079B76
:103C2000069AFCF74BFC07910690A86EFCF7A6FDE0
:103C30000022514B00F0ACFC0B910A90686DFCF730
:103C40009DFD0B9B0A9AFCF739FC0D910C90A86E18
:103C5000FCF794FD002200E026E1484B00F098FCC0
:103C60000B910A90286DFCF789FD0B9B0A9AFCF7D3
:103C700025FC0D9B0C9AFCF76FFB079B069AFCF743
:103C80006BFB099B089AFCF767FB019B009AFCF70A
:103C900063FB059B049AFCF75FFBFCF797FDA866A6
:103CA0002D480121C6640546017380353746686B8F
:103CB000FCF7EFFC2946B4314968FCF703FBFCF73D
:103CC0002AFD6863FCF7E5FC2D49FCF7FBFA2D495A
:103CD000FCF7BBFA68606868FCF750FD0991089032
:103CE0006868FCF74BFD079106906868FCF746FD95
:103CF000059104906868FCF741FD019100906868A7
:103D0000FCF73CFD204A214BFCF7D8FB019B009AB5
:103D1000FCF7D4FB059B049AFCF7D0FB079B069AA3
:103D2000FCF7CCFB099B089AFCF7C8FB05910490B3
:103D30006868FCF723FD099108906868FCF71EFD90
:103D4000079106906868FCF719FD21E020BC3E4C05
:103D500000247449940500200C0000204402002037
:103D6000FCA9F1D24D62503F0C0100209A9999991B
:103D70009999B93F0000084000001040000014402D
:103D800000FF7F470000A0402EFF21FDF6152140D7
:103D9000019100906868FCF7F1FCFA4AFA4BFCF7D5
:103DA0008DFB019B009AFCF789FB079B069AFCF7A9
:103DB00085FB099B089AFCF781FB019100906868DC
:103DC000FCF7DCFC099108906868FCF7D7FC0791C8
:103DD00006906868FCF7D2FCEC4AED4BFCF76EFBF2
:103DE000079B069AFCF76AFB099B089AFCF766FB9F
:103DF000079106906868FCF7C1FC09910890686813
:103E0000FCF7BCFCE34AE44BFCF758FB099B089A1F
:103E1000FCF754FB099108906868FCF7AFFCDF4A97
:103E2000DF4BFCF74BFB0022DE4BFCF73FFB099B13
:103E3000089AFCF791FA079B069AFCF731FB019B65
:103E4000009AFCF789FA059B049AFCF729FBFCF71A
:103E5000BDFC686028468038806E0121C90500904D
:103E6000884203DBFCF757FCE86200E0EF62CE49D2
:103E70006868FCF7EAF9FCF735FC28656868CB4907
:103E8000884203DC6868CA49884200D92F65C9495D
:103E90000098884201DAC84900E0C849FCF7D5F922
:103EA000FCF739FC286349E2C548FEF7CDFDFEF773
:103EB000D7FDC4481673416C012903D9D16E8165C1
:103EC000106F00E0C048D0666420106310790528A8
:103ED00001D9012010711667BA488038C06EFCF70E
:103EE0004DFCBA4ABA4BFCF751FBFCF76FFCB649E4
:103EF000FCF7E8F9B749FCF7A8F9B249B14F8039A6
:103F000088660090B86DFCF739FCB04AB04BFCF7FE
:103F10003DFBFCF75BFCAC49FCF7D4F9AD49FCF781
:103F200094F9B865019038468038007C442806D062
:103F30003D46803D43287DD041287CD0FCE1A14A0C
:103F4000803A507A4D2804D0662804D0092804D03D
:103F500005E0A14802E0A14800E0A1487865924947
:103F60000098FCF7AFF9FCF7D6FB9649C0B2803950
:103F700008760A214843FCF78CFB0099FCF761F9AD
:103F80000546FCF7C8FB8F49C0B280394876FCF77C
:103F900080FB01462846FCF750F9FCF7EFFB05468D
:103FA000904A914B0091FCF7F1FAFCF7C9FB854967
:103FB000C0B280398876FCF787FB8A4A8A4BFCF7C7
:103FC0007DFA02460B4628460099FCF769FA874DB0
:103FD000874B2A4601910090FCF7D8FAFCF7B0FB1A
:103FE0007849C0B28039C876FCF76EFB2A46804B10
:103FF000FCF764FA05910690019B009AFCF756FACB
:104000007C4D7D4B2A46FCF7C1FAFCF799FB6D49C4
:10401000C0B280390877FCF757FB2A46764BFCF78D
:104020004DFA03900D4604910890059B069A01995C
:10403000009801E034E0E9E0FCF732FA2B46089AF8
:10404000FCF72EFA6D4D6E4B2A46FCF79FFAFCF7F3
:1040500077FB5C49C0B280394877FCF735FB2A46CC
:10406000674BFCF72BFA0B910A90039D049903917F
:10407000059B069A01990098FCF712FA2A46039BC1
:10408000FCF70EFA0B9B0A9AFCF70AFA5D4A5E4BA4
:10409000FCF77CFAFCF754FB4A49803988774BE1FE
:1040A000687A092807D14E487865FF210098C9052C
:1040B000C84200D3AE66A86E3B490746FCF702F93A
:1040C000FCF729FB3849C0B2A8748F4201DAA86E08
:1040D00007E00A214843FCF7DCFA3946FCF7B1F85F
:1040E000A8660090FCF717FBC0B2E874FCF7D1FAA1
:1040F0000099FCF7A6F8FCF741FB3A4A3A4B0191CC
:104100000090FCF743FAFCF71BFBC0B22875FCF7E4
:10411000DBFA344A344BFCF7D1F9019B009AFCF7E7
:10412000C5F9324A324B01910090FCF72FFAFCF7A7
:1041300007FBC0B26875FCF7C7FA2C4A2C4BFCF79A
:10414000BDF9019B009AFCF7B1F92A4A2A4B01916B
:104150000090FCF71BFAFCF7F3FAC0B2A875FCF765
:10416000B3FA244A244BFCF7A9F9019B009AFCF707
:104170009DF9224A224BFCF709FAFCF7E1FAE875AF
:10418000DAE0000039B4C876BEDF4B400AD7A3702E
:104190003DE26240B81E85EB51D06A40A4703D0AF2
:1041A000D783684000005E400000204100008C4240
:1041B0000000A0C100401C4600007A440000C84234
:1041C00000127A008C00002000FF7F4787BC8A31F4
:1041D0005555D53F0000A0403333A34066662640C6
:1041E0009A9941419A9999999999B93F7B14AE4707
:1041F000E17A843FFCA9F1D24D62503F2D431CEB84
:10420000E2361A3FF168E388B5F8E43E687A4D2853
:1042100001D066287ED0CC490198FCF753F8FCF712
:104220007AFAC0B2E8770A214843FCF732FA0199DA
:10423000FCF707F80546FCF76EFAC0B22070FCF7F1
:1042400028FA01462846FBF7F8FFFCF797FA0546DF
:10425000BE4ABF4B0091FCF799F9FCF771FAC0B266
:104260006070FCF731FAB94AB94BFCF727F90246FE
:104270000B4628460099FCF713F9B64DB64B2A4673
:1042800001910090FCF782F9FCF75AFAC0B2A070D5
:10429000FCF71AFA2A46B04BFCF710F90691059084
:1042A000019B009AFCF702F9AC4DAD4B2A46FCF796
:1042B0006DF9FCF745FAC0B2E070FCF705FA2A4642
:1042C000A74BFCF7FBF80B910A9003900491069B17
:1042D000059A01990098FCF7E3F80B9B0A9AFCF702
:1042E000DFF8A04DA04B2A46FCF750F9FCF728FA5E
:1042F000C0B22071FCF7E8F92A469B4BFCF7DEF8C8
:104300000B910A90039D049B0393069B059A0199C8
:10431000009800E0A1E0FCF7C3F82A46039BFCF7F5
:10432000BFF80B9B0A9AFCF7BBF8904A904BFCF73E
:104330002DF9FCF705FA60718E4886668D4F0A21CB
:104340008037386B0090FBF7EBFE6A46127A8A4D95
:10435000D3009A1A5219303111750A21FBF7E0FE89
:104360006A46107A3031C200101A4019C1746421B3
:104370000098FBF7D5FE0A21FBF7D2FE6A46107AB9
:104380003031C200101A401981747D21C900009893
:10439000FBF7C6FE0A21FBF7C3FE6A46107A3031EE
:1043A000C200101A4019417474490098FBF7B8FE16
:1043B0000A21FBF7B5FE6A46107A3031C200101AA6
:1043C000401901746E490098FBF7AAFE0A21FBF719
:1043D000A7FE6A46107A3031C200101A4019C17324
:1043E00068490098FBF79CFE0A21FBF799FE6A4694
:1043F000107A3031C200101A40198173386D64216F
:104400000090FBF7A3FE0A21FBF7A0FE6A46107A94
:104410003031420080184019603081770A210098BD
:10442000FBF794FE00910A21FBF790FE6A46107A92
:1044300042008018401960303031C1776A46107AE6
:104440000099420080184019803030310170BE6000
:10445000484886677E63FEF725FF0098FCF78EF9D3
:104460000022494BFCF792F80022484BFCF726F853
:10447000FCF7ACF93449A866884202DB32480A38B6
:10448000A8660546FCF747F9C0B22070FCF701F9B1
:104490002946FBF7D6FEFCF771F905462B4A2C4B53
:1044A0000091FCF773F8FCF74BF9C0B26070FCF7B1
:1044B0000BF9264A264BFCF701F802460B46284624
:1044C0000099FBF7EDFF0546224A234B0091FCF7CC
:1044D0005DF8FCF735F9C0B2A070FCF7F5F81D4A9D
:1044E0001D4BFBF7EBFF02460B4628460099FBF7F6
:1044F000D7FF0546194A1A4B0091FCF747F8FCF71D
:104500001FF9C0B2E070FCF7DFF8144A144BFBF758
:10451000D5FF02460B4628460099FBF7C1FF05462A
:10452000104A114B0091FCF731F8FCF709F9C0B2C1
:104530002071FCF7C9F80B4A0B4BFBF7BFFF024693
:104540000B4628460099EEE6000020419A99999979
:104550009999B93F7B14AE47E17A843FFCA9F1D227
:104560004D62503F2D431CEBE2361A3FF168E38861
:10457000B5F8E43E0C0000203B0D002010270000A1
:10458000A086010040420F000000044000002440CB
:10459000F0B51FB496B084460C460246199D189893
:1045A0000390490068006300490840080193002A0D
:1045B00001D0012600E000269E19FE4BF6185B1084
:1045C0009E422BD36E00039F0296002F00D001273E
:1045D000F719F84EF84BBE199E421FD3039E0346AF
:1045E000F64F334309D03B469C4201D1002A04D008
:1045F000019B002A05D0012604E0002039461BB0AB
:10460000F0BD00269E19EE4B9E4207D8039F029EE6
:10461000002F00D00127F6199E4207D92B4660468D
:104620002146189AFDF782FD1BB0F0BD0023002C37
:1046300029DAE44EB04226DAE34EB04201DB02232F
:1046400021E0DE4EB0421EDBE04E070DBE19142EF7
:1046500009DD3427BF1B039EFE400196BE40039F29
:10466000BE420BD00FE0039F002F0CD11427BF1BBD
:104670000646FE400196BE40864204D1019BDE07FD
:10468000F60F02239B1B0E46164318D1002D16DA97
:10469000002C03D0022B01D0012B06D00220FDF705
:1046A00075FDFDF739FD1BB0F0BD0220FDF76EFD75
:1046B000FDF732FD0122D20751401BB0F0BD039E31
:1046C000002E61D1BF4EB04220D1C148844201D1F9
:1046D000002A08D0B948814209DB002D10DB189868
:1046E00029461BB0F0BD0020B4491BB0F0BD002D21
:1046F00006DA01222946D207189851401BB0F0BDB6
:10470000B4497944086849681BB0F0BDAB4FB84262
:1047100025D1002D1FDA002904D0B14212D1002A80
:1047200009D018E0002A72D1A649E20F0020D20772
:1047300011431BB0F0BD0020E20F0146D207114328
:104740001BB0F0BDB14206DA234600203946FBF724
:104750001DFF1BB0F0BD104621461BB0F0BDB1429D
:1047600012DA0126B607B54203D123461046194690
:10477000FEE3994EB54207D1261E05DB10463146B1
:1047800000F0BEFC1BB0F0BD67007F081646002A93
:1047900040D100290AD08B4A914229D1002C0EDD4C
:1047A000002D1CDB002011461BB0F0BD022B16D0E3
:1047B000002C14D0012B12D1002C14DB0FE0002CA4
:1047C00028DA002D09DB012B03D000207D491BB026
:1047D000F0BD002081491BB0F0BD012B03D00020AB
:1047E00001461BB0F0BD00200121C9071BB0F0BD80
:1047F000724A91420ED1002C01DA002B17D0022B05
:1048000006D00020C043FBF74BFF1BB0F0BD90E289
:104810000120F8E7E217521C94461A4307D0002201
:104820000892664C62465B1E1A4307D009E00120DD
:10483000FDF7ACFCFDF77EFC1BB0F0BD0022644C24
:104840000892674A90427DDD664B674A98421FDDB9
:10485000914202DC002D05DB4DE05848814217DB18
:10486000002D48DD0220FDF791FCFDF76BFC0546AD
:104870000E460022534B21460898FBF71FFE0846C0
:1048800071004908C00FC007014328461BB0F0BDA6
:10489000914215DA002D2EDA0220FDF777FCFDF7A4
:1048A00051FC05460E460022464B21460898FBF770
:1048B00005FE72005208C80FC0070243114617E0F8
:1048C0003E4B994223DD002D15DD0220FDF75EFCF5
:1048D000FDF738FC05460E4600223A4B2146089863
:1048E000FBF7ECFD084671004908C00FC007014303
:1048F00028461BB0F0BD0220FDF748FCFDF72CFC5C
:1049000049004908E20FD20711431BB0F0BD002255
:1049100030463946FBF7C4FD012205460E46D24318
:10492000FCF788F8314A324BFBF7C0FD2A46334684
:10493000FBF7C4FD0022284BFBF7B8FD07462A46CB
:10494000334600E064E0039110461946FBF7B6FDDC
:104950003A46039BFBF7B2FD074603220991520733
:10496000244B28463146FBF7A9FD07910C90224ABB
:10497000204B38460999FBF7A1FD074601911F4AD4
:104980001F4B28463146FBF799FD3A46019BFBF742
:1049900087FD07460B460246099107990C98FBF7DD
:1049A000DBFC00250E462846079B0C9AFBF778FD9A
:1049B0003A4627E0FFFF1F00FFFF0F000000F03F17
:1049C0000000E0FF0000F07F0000404301FCFFFF1B
:1049D0000000F0BF620C00000000E03F0000F0FFAC
:1049E0000000E0410000F043FFFFEF3F55555555F3
:1049F0005555D53F4715F73FFE822B6544DF5DF8DF
:104A00000BAE543E099BFBF751FD02460B4652E1AB
:104A1000012500202D05A94207DA35223046394606
:104A2000FCF708F806463420C0430A151218FE4861
:104A3000101803900803FD49000B01430F46FC4981
:104A4000884201DC002003E0FA49884202DA0120B2
:104A5000119005E0002011900398401C7F1B0390EB
:104A600011980597C200F4480F9278448018436863
:104A70000268394630460D930292FBF711FD07910B
:104A80000C9030460D9B029A0599FBF765FC024697
:104A90000B460020E549FBF779FD09910490079B3F
:104AA0000C9AFBF70BFD129000201090E3480D4686
:104AB000784400680E900121781049070843119945
:104AC0000D9B890440180121C90447183946029AF0
:104AD0000E98FBF7E5FC3246059BFBF7E7FC024628
:104AE0000B4629461098FBF7E9FC064602913B4627
:104AF00029460E9A1098FBF7E1FC079B0C9AFBF7EE
:104B0000D5FC3246029BFBF7CBFC099B049AFBF7D2
:104B1000D5FC0591129A0A902B4610461946FBF7D0
:104B2000CDFC06460246C6480F460B460621784491
:104B3000FDF79CFA32463B46009104901046194618
:104B4000FBF7BCFC009B049AFBF7B8FC06460F463B
:104B50002B461946129A1098FBF7FEFB059B0A9A02
:104B6000FBF7ACFC32463B46FBF7F6FB109A07918D
:104B700004902B4610461946FBF7A0FCB14E0022CC
:104B8000334609910290FBF7E7FB079B049AFBF77A
:104B9000E3FB00200746024633460091FBF780FC0A
:104BA000099B029AFBF77CFC079B049AFBF77EFCAF
:104BB00006460D913A462946009B1098FBF77EFC6D
:104BC00007910C902B463046129A0D99FBF776FC14
:104BD00005460E463A46009B05990A98FBF76EFC7F
:104BE00033462A46FBF7B8FB02460B4607460991B7
:104BF00007990C98FBF7B0FB00250E462846079B4B
:104C00000C9AFBF74DFC3A46099BFBF74FFC074615
:104C10000722099152078C4B31462846FBF74EFC80
:104C200007910090894A884B38460999FBF746FC62
:104C300007460191864A874B31462846FBF73EFCE2
:104C40003A46019BFBF788FB834B7B440F9A9B18EA
:104C50001A685B68FBF780FB029009910398FBF7E9
:104C60001FFD05910490099B029A07990098FBF794
:104C700073FB7A4B7B440F9A9B181A685B68174644
:104C80000393FBF769FB059B049AFBF765FB0E4654
:104C90002846059B049AFBF703FC3A46039BFBF767
:104CA000FFFB079B009AFBF7FBFB099B029AFBF7B4
:104CB000FDFB02460B46199900200C900F461898F0
:104CC000FBF7FCFB029104903B460C9A199918984B
:104CD000FBF7E6FB2A463346FBF7F0FB029B049A00
:104CE000FBF73AFB09910E902A46334639460C9859
:104CF000FBF7E4FB06460F46099B0E9AFBF72CFBDD
:104D0000574A0D46914220DB5242AA18024310D165
:104D100032463B46FBF7C4FB04900391514A524B89
:104D200009990E98FBF718FB039B049AFBF73AFDD1
:104D30001ED20220FDF72AFAFDF704FA49004908BD
:104D4000E20FD20711431BB0F0BD6A00474B520877
:104D50009A420DD3464AAA18024300D0CBE5324608
:104D60003B46FBF79DFB099B0E9AFBF71BFDF5D914
:104D70006800002340082C490393020D3D4B521854
:104D8000984223DD01200005521CD04042195000FA
:104D9000400D401838497944096813468C46374914
:104DA000C1408B4312030121120B09055118142233
:104DB000101AC1400391002D01DA48420390624667
:104DC00030463946FBF76CFB06460F4632463B46FB
:104DD00009990E98FBF7C0FA00252A46284B284669
:104DE0000591FBF76BFB07910C90264A264B284652
:104DF0000599FBF763FB0091029032463B4628463B
:104E00000599FBF74DFB099B0E9AFBF74FFB1F4AD9
:104E10001F4BFBF753FB009B029AFBF79DFA0746DB
:104E20000B460246099135E001FCFFFF0000F03F10
:104E30008E9803007AB60B0072080000B4080000D8
:104E4000DE0700000000084009C7EE3FFD033ADC22
:104E5000F5015B14E02F3EBEB206000078060000AC
:104E600000009040FE822B654715973C00CC904097
:104E700000346F3F0000E03FCE050000FFFF0F0051
:104E8000432EE63F396CA80C615C20BEEF39FAFE78
:104E9000422EE63F07990C98FBF75EFA05460E4650
:104EA000079B0C9AFBF7FCFA3A46099BFBF7FEFAC4
:104EB00009912A4633460E9010461946FBF7FEFA32
:104EC000074602462F480B46059105217844FDF719
:104ED000CDF83A46059BFBF7F1FA2A463346FBF735
:104EE000E5FA0746019128463146099B0E9AFBF7E1
:104EF000E5FA099B0E9AFBF72FFA012304910C9017
:104F000000229B0738460199FBF7CAFA05910E90DB
:104F10003A4628463146019BFBF7D0FA059B0E9A8C
:104F2000FBF734FB049B0C9AFBF7BAFA2A4633468C
:104F3000FBF7B6FA0022144BFBF7B8FA06460398C3
:104F40000D46000541190915002912DC3046294695
:104F5000039AFBF76FFDFDF773F8042801D1FDF705
:104F6000FBF830462946039AFBF764FD064601E04C
:104F700004E029180B46324621460898FBF79EFAB2
:104F80001BB0F0BD700400000000F03F10B53A23E4
:104F9000024A0021A020FCF76FF810BDC4020020D7
:104FA000F0B50022194F1646BA60184C0125803C16
:104FB0002563134626630F20FDF746FD25630D206C
:104FC000FDF742FD5B1C052BF4DB002326630F205D
:104FD000FDF73AFD7868002800D0521C2563520086
:104FE0000D20FDF731FD5B1C102BEFDBBD600023B6
:104FF00026630F20FDF728FD25630D20FDF724FD16
:105000005B1C052BF4DB1046F0BD00008042005015
:1050100070B5AEB000F036F8134800F095F8134DB7
:10502000FF24E8840134124904200860114E11E085
:10503000B1236A462146A020FCF71EF83046FDF752
:1050400003FD69460CA0FCF7D3FF3046FDF7FCFCDE
:10505000FF340134E88C0002A042E9D20220FCF7C0
:1050600019FA2EB070BD0000200100200C000020B5
:1050700080E100E0102700000A25732D446174616F
:105080000A00000010B50523024A4021A020FBF7CA
:10509000F3FF10BD2001002010B5134C114AE16F41
:1050A000B123A020FCF774F8E06FFF300130E06717
:1050B000E06F0E49884202D3FF200130E0670A49C1
:1050C0000B4A8039C88C401C80B2C884904203D3FC
:1050D000CA8408A0FCF78CFFFCF7EEFC00F0BCF8DB
:1050E00010BD00003B0D00208C00002000FE0300DE
:1050F000FF030000313131313131313131310000C4
:10510000F8B506460C46FBF7ABFC051E0F4600D073
:105110000120014349000B484908411AC90F0DD02D
:10512000002E01D0012100E000210C43610049085C
:10513000401AC00F02D10120FDF728F82846394651
:10514000F8BD00000000F07F01780A223039514399
:105150004278303951180A22514382783039511837
:105160000A225143C278303951180A22514300793A
:10517000303940187047000010B5274801780A09F7
:10518000264912010B7CCC7B1B071B0F1A438F2374
:1051900064071A40640E2243027042788C7B120925
:1051A00024071201240F22431A404B7B5B075B0E3E
:1051B0001A43427082780B7B12091B0712011B0FE6
:1051C000CC7A1A43CF23A4071A40A40E224382703C
:1051D00002798C7A120924071201240F22431A4003
:1051E0004B7A9B079B0E1A43027142790B7A120984
:1051F0001B0712011B0F1A43EF231A40CB79DB0761
:10520000DB0E1A4342718B7949791A07120F090193
:105210000A43827110BD000038010020C402002042
:105220000649074A00200B5C1354401C3628FADB61
:10523000034800212030017541757047C4020020E9
:10524000050D002010B53A23024A0021A020FBF7EB
:105250009FFF10BDC402002010B50523024A402163
:10526000A020FBF795FF10BD20010020001BB70018
:105270000000000080F0FA0210270000000000008B
:10528000000000000000000000805101001BB7007A
:10529000000000000000000000805101001BB7006A
:1052A000000000000000000000805101001BB7005A
:1052B000000000000000000000805101001BB7004A
:1052C00000000000000000000000000000000000DE
:1052D00010270000000000000080510100000000C5
:1052E000000000000000F03F000000000000F83F58
:1052F00000000000000000000000004003B8E23F92
:10530000000000000000000006D0CF43EBFD4C3E43
:10531000033333333333E33FFFAB6FDBB66DDB3F38
:105320004D268F515555D53F01411DA96074D13F80
:1053300065DBC9934A86CD3FEF4E454A287ECA3F7A
:105340003E5555555555C53F93BDBE166CC166BFFC
:105350002CDE25AF6A56113FF16BD2C541BDBBBEF5
:10536000D0A4BE726937663E000000000000000055
:105370009053000000000020440200006C21000057
:10538000D455000044020020AC0D00007C21000038
:1053900080F0FA023200000080F0FA020001000002
:1053A00000000000000000000000000000000000FD
:1053B00000000000000000000000000000000000ED
:1053C000000000000000803F0000803F64000000FB
:1053D0000000000004000000000000003800000091
:1053E00000000000000000000000000000000000BD
:1053F00000000000000000000000000000000000AD
:10540000000000000000000000000000000000009C
:10541000000000000000000000000000000000008C
:10542000000000000000000000000000000000007C
:10543000000000000000000000000000000000006C
:10544000000000000000000000000000000000005C
:10545000000000000000000000000000000000004C
:10546000000000000000000000000000000000003C
:10547000000000000000000000000000000000002C
:10548000000000000000000000000000000000001C
:10549000000000000000000000000000000000000C
:1054A00000000000000000000000000000000000FC
:1054B0000000000000020E030F000C078000000037
:1054C00000000000000000000000000000000000DC
:1054D0003BAAAA3E0000803F666666402FDD2C4155
:1054E0003D0A04427B14C642983A0000E02E0000B8
:1054F000102700007B2100004C1D00000A1A00004C
:10550000701700004E1500008813000007120000FD
:10551000BD100000A00F0000A60E0000C90D000085
:10552000050D0000550C0000B80B0000290B000011
:10553000A70A0000300A0000C4090000600900004A
:1055400003090000AE0800005E0800001408000017
:10555000D00700008F070000530700001A07000063
:10556000E4060000B20600008206000055060000B6
:105570002A06000002060000DC050000B705000056
:105580009405000073050000530500003505000078
:1055900018050000FC040000E2040000C80400003C
:1055A000B004000098040000810400006C040000B6
:1055B00057040000420400002F0400001C040000F7
:1055C0000A040000F8030000E803000000000000E7
:0455D00000000000D7
:04000005000000D522
:00000001FF
